:100000000C9434000C9451000C9451000C94510049
:100010000C9451000C9451000C9451000C9451001C
:100020000C9451000C9451000C9451000C9451000C
:100030000C9451000C9451000C9451000C945100FC
:100040000C9451000C9451000C947C000C945100C1
:100050000C9451000C94D4000C9451000C94510059
:100060000C9451000C94510011241FBECFEFD8E026
:10007000DEBFCDBF11E0A0E0B1E0EAEAF2E002C0ED
:1000800005900D92AE34B107D9F721E0AEE4B1E0AE
:1000900001C01D92A337B207E1F70E945D000C94E6
:1000A00053010C940000ECE7F0E01082808186663A
:1000B00080838CE880937A000895F8940E94070169
:1000C0000E94530080E091E00E94F40017B8EAE734
:1000D000F0E0808180648083789480914F0185B9BD
:1000E0002BB19091720130E1939FC0011124922FA6
:1000F0009F70892B8BB9F1CF1F920F920FB60F9281
:1001000011242F933F934F935F936F937F938F931C
:100110009F93AF93BF93EF93FF938091C60090910D
:100120004E01913079F4982F92959F7090934F01E2
:100130008F708093720110924E0180E091E00E94D6
:10014000F40021C0813389F4809171014AE060E5B7
:1001500071E090E00E941E0180E591E00E94F400B1
:1001600080E091E00E94F4000EC0823341F48AE303
:1001700091E00E94F40081E080934E0104C080E091
:1001800091E00E94F400FF91EF91BF91AF919F9198
:100190008F917F916F915F914F913F912F910F9030
:1001A0000FBE0F901F9018951F920F920FB60F92CF
:1001B00011248F93EF93FF938091790080937101C5
:1001C000EAE7F0E0808180648083FF91EF918F9176
:1001D0000F900FBE0F901F9018959091C00095FF43
:1001E000FCCF8093C60008950F931F93CF938C018B
:1001F000C0E003C00E94ED00CF5FF801EC0FF11DDD
:1002000080818111F7CFCF911F910F9108958AB10D
:100210008E7F8AB98AB1826F8AB98FEF84B91092C2
:10022000C00088E98093C10086E08093C20080EA24
:1002300091E09093C5008093C4000895BB274A3095
:1002400031F4992322F4BDE2909581959F4F0C944F
:100250002A01BB27FB015527AA27880F991FAA1F30
:10026000A41710F0A41B83955051B9F7A05DAA33D1
:1002700008F0A95DA193009779F7B111B19311929C
:10028000CB010C944301DC01FC01672F71917723B2
:10029000E1F7329704C07C916D9370836291AE1741
:0A02A000BF07C8F30895F894FFCFDC
:1002AA0053656C656363696F6E6172206F70636911
:1002BA00F36E3A20313A4C65657220706F74656E40
:1002CA006369F36D6574726F2E20323A656E7669D2
:1002DA0061722041534349492E00496E6772657322
:0E02EA00652073752063617261637465720034
:00000001FF
