S01500004C61626F7261746F72696F5F362E73726563FC
S11300000C9434000C9446000C9446000C94460066
S11300100C9446000C9446000C9446000C94460044
S11300200C9446000C9446000C9446000C94460034
S11300300C9446000C9446000C9446000C94460024
S11300400C9446000C9446000C9479000C944600E1
S11300500C9446000C9446000C9446000C94460004
S11300600C9446000C94460011241FBECFEFD8E038
S1130070DEBFCDBF21E0A0E0B1E001C01D92A330FE
S1130080B207E1F70E945F000C94AA000C940000F0
S11300908AB18E7F8AB98AB1826F8AB98FEF84B9A7
S11300A01092C00088E98093C10086E08093C2006A
S11300B080EA91E09093C5008093C4000895F89479
S11300C00E94480078948091010185B92BB19091E8
S11300D0020130E1939FC0011124922F9F70892B5C
S11300E08BB9F1CF9091C00095FFFCCF8093C600EF
S11300F008951F920F920FB60F9211242F933F93DE
S11301004F935F936F937F938F939F93AF93BF931B
S1130110CF93EF93FF93C091C6008C2F0E9472007F
S11301208C2F82958F7080930101CF70C093020150
S1130130FF91EF91CF91BF91AF919F918F917F915B
S11301406F915F914F913F912F910F900FBE0F9040
S10B01501F901895F894FFCFED
S9030000FC
